{
  "address": "0xe7f1725E7734CE288F8367e1Bb143E90bb3F0512",
  "abi": [
    {
      "inputs": [
        {
          "internalType": "address",
          "name": "priceFeedAddress",
          "type": "address"
        }
      ],
      "stateMutability": "nonpayable",
      "type": "constructor"
    },
    {
      "inputs": [],
      "name": "NotOwner",
      "type": "error"
    },
    {
      "stateMutability": "payable",
      "type": "fallback"
    },
    {
      "inputs": [
        {
          "internalType": "address",
          "name": "",
          "type": "address"
        }
      ],
      "name": "addressToAmountFunded",
      "outputs": [
        {
          "internalType": "uint256",
          "name": "",
          "type": "uint256"
        }
      ],
      "stateMutability": "view",
      "type": "function"
    },
    {
      "inputs": [],
      "name": "fund",
      "outputs": [],
      "stateMutability": "payable",
      "type": "function"
    },
    {
      "inputs": [
        {
          "internalType": "uint256",
          "name": "",
          "type": "uint256"
        }
      ],
      "name": "funders",
      "outputs": [
        {
          "internalType": "address",
          "name": "",
          "type": "address"
        }
      ],
      "stateMutability": "view",
      "type": "function"
    },
    {
      "inputs": [],
      "name": "getVersion",
      "outputs": [
        {
          "internalType": "uint256",
          "name": "",
          "type": "uint256"
        }
      ],
      "stateMutability": "view",
      "type": "function"
    },
    {
      "inputs": [],
      "name": "priceFeed",
      "outputs": [
        {
          "internalType": "contract AggregatorV3Interface",
          "name": "",
          "type": "address"
        }
      ],
      "stateMutability": "view",
      "type": "function"
    },
    {
      "inputs": [],
      "name": "widthdraw",
      "outputs": [],
      "stateMutability": "nonpayable",
      "type": "function"
    },
    {
      "stateMutability": "payable",
      "type": "receive"
    }
  ],
  "transactionHash": "0x0885dad1653a08dbd0a7d0ca9b5e0e5222b3d64f8a5642b139281365d9924c91",
  "args": [
    "0x5FbDB2315678afecb367f032d93F642f64180aa3"
  ],
  "numDeployments": 1,
  "solcInputHash": "297666400ef08620f9c3ef2a05dc33a1",
  "bytecode": "0x60a060405234801561001057600080fd5b50604051610dc0380380610dc083398181016040528101906100329190610110565b3373ffffffffffffffffffffffffffffffffffffffff1660808173ffffffffffffffffffffffffffffffffffffffff168152505080600260006101000a81548173ffffffffffffffffffffffffffffffffffffffff021916908373ffffffffffffffffffffffffffffffffffffffff1602179055505061013d565b600080fd5b600073ffffffffffffffffffffffffffffffffffffffff82169050919050565b60006100dd826100b2565b9050919050565b6100ed816100d2565b81146100f857600080fd5b50565b60008151905061010a816100e4565b92915050565b600060208284031215610126576101256100ad565b5b6000610134848285016100fb565b91505092915050565b608051610c6861015860003960006103470152610c686000f3fe6080604052600436106100595760003560e01c80630d8e6e2c146100725780633e47d6f31461009d57806352b50a2a146100da578063741bef1a146100f1578063b60d42881461011c578063dc0d3dff1461012657610068565b3661006857610066610163565b005b610070610163565b005b34801561007e57600080fd5b5061008761029e565b604051610094919061070b565b60405180910390f35b3480156100a957600080fd5b506100c460048036038101906100bf9190610789565b61032d565b6040516100d1919061070b565b60405180910390f35b3480156100e657600080fd5b506100ef610345565b005b3480156100fd57600080fd5b50610106610519565b6040516101139190610815565b60405180910390f35b610124610163565b005b34801561013257600080fd5b5061014d6004803603810190610148919061085c565b61053f565b60405161015a9190610898565b60405180910390f35b678ac7230489e800006101a1600260009054906101000a900473ffffffffffffffffffffffffffffffffffffffff163461057e90919063ffffffff16565b10156101e2576040517f08c379a00000000000000000000000000000000000000000000000000000000081526004016101d990610936565b60405180910390fd5b6000339080600181540180825580915050600190039060005260206000200160009091909190916101000a81548173ffffffffffffffffffffffffffffffffffffffff021916908373ffffffffffffffffffffffffffffffffffffffff160217905550670de0b6b3a76400003461025991906109b4565b600160003373ffffffffffffffffffffffffffffffffffffffff1673ffffffffffffffffffffffffffffffffffffffff16815260200190815260200160002081905550565b60008073694aa1769357215de4fac081bf1f309adc32530690508073ffffffffffffffffffffffffffffffffffffffff166354fd4d506040518163ffffffff1660e01b8152600401602060405180830381865afa158015610303573d6000803e3d6000fd5b505050506040513d601f19601f8201168201806040525081019061032791906109fa565b91505090565b60016020528060005260406000206000915090505481565b7f000000000000000000000000000000000000000000000000000000000000000073ffffffffffffffffffffffffffffffffffffffff163373ffffffffffffffffffffffffffffffffffffffff16146103ca576040517f30cd747100000000000000000000000000000000000000000000000000000000815260040160405180910390fd5b60005b60008054905081101561046f5760008082815481106103ef576103ee610a27565b5b9060005260206000200160009054906101000a900473ffffffffffffffffffffffffffffffffffffffff1690506000600160008373ffffffffffffffffffffffffffffffffffffffff1673ffffffffffffffffffffffffffffffffffffffff168152602001908152602001600020819055505080806001019150506103cd565b50600067ffffffffffffffff81111561048b5761048a610a56565b5b6040519080825280602002602001820160405280156104b95781602001602082028036833780820191505090505b50600090805190602001906104cf92919061064b565b503373ffffffffffffffffffffffffffffffffffffffff166108fc479081150290604051600060405180830381858888f19350505050158015610516573d6000803e3d6000fd5b50565b600260009054906101000a900473ffffffffffffffffffffffffffffffffffffffff1681565b6000818154811061054f57600080fd5b906000526020600020016000915054906101000a900473ffffffffffffffffffffffffffffffffffffffff1681565b60008061058a836105ba565b90506000670de0b6b3a764000082866105a39190610a85565b6105ad91906109b4565b9050809250505092915050565b6000808273ffffffffffffffffffffffffffffffffffffffff1663feaf968c6040518163ffffffff1660e01b815260040160a060405180830381865afa158015610608573d6000803e3d6000fd5b505050506040513d601f19601f8201168201806040525081019061062c9190610b3f565b5050509150506402540be400816106439190610bba565b915050919050565b8280548282559060005260206000209081019282156106c4579160200282015b828111156106c35782518260006101000a81548173ffffffffffffffffffffffffffffffffffffffff021916908373ffffffffffffffffffffffffffffffffffffffff1602179055509160200191906001019061066b565b5b5090506106d191906106d5565b5090565b5b808211156106ee5760008160009055506001016106d6565b5090565b6000819050919050565b610705816106f2565b82525050565b600060208201905061072060008301846106fc565b92915050565b600080fd5b600073ffffffffffffffffffffffffffffffffffffffff82169050919050565b60006107568261072b565b9050919050565b6107668161074b565b811461077157600080fd5b50565b6000813590506107838161075d565b92915050565b60006020828403121561079f5761079e610726565b5b60006107ad84828501610774565b91505092915050565b6000819050919050565b60006107db6107d66107d18461072b565b6107b6565b61072b565b9050919050565b60006107ed826107c0565b9050919050565b60006107ff826107e2565b9050919050565b61080f816107f4565b82525050565b600060208201905061082a6000830184610806565b92915050565b610839816106f2565b811461084457600080fd5b50565b60008135905061085681610830565b92915050565b60006020828403121561087257610871610726565b5b600061088084828501610847565b91505092915050565b6108928161074b565b82525050565b60006020820190506108ad6000830184610889565b92915050565b600082825260208201905092915050565b7f736f7272792c20796f75206d757374207061792061206d696e696d756d206f6660008201527f205553442031302e000000000000000000000000000000000000000000000000602082015250565b60006109206028836108b3565b915061092b826108c4565b604082019050919050565b6000602082019050818103600083015261094f81610913565b9050919050565b7f4e487b7100000000000000000000000000000000000000000000000000000000600052601260045260246000fd5b7f4e487b7100000000000000000000000000000000000000000000000000000000600052601160045260246000fd5b60006109bf826106f2565b91506109ca836106f2565b9250826109da576109d9610956565b5b828204905092915050565b6000815190506109f481610830565b92915050565b600060208284031215610a1057610a0f610726565b5b6000610a1e848285016109e5565b91505092915050565b7f4e487b7100000000000000000000000000000000000000000000000000000000600052603260045260246000fd5b7f4e487b7100000000000000000000000000000000000000000000000000000000600052604160045260246000fd5b6000610a90826106f2565b9150610a9b836106f2565b9250828202610aa9816106f2565b91508282048414831517610ac057610abf610985565b5b5092915050565b600069ffffffffffffffffffff82169050919050565b610ae681610ac7565b8114610af157600080fd5b50565b600081519050610b0381610add565b92915050565b6000819050919050565b610b1c81610b09565b8114610b2757600080fd5b50565b600081519050610b3981610b13565b92915050565b600080600080600060a08688031215610b5b57610b5a610726565b5b6000610b6988828901610af4565b9550506020610b7a88828901610b2a565b9450506040610b8b888289016109e5565b9350506060610b9c888289016109e5565b9250506080610bad88828901610af4565b9150509295509295909350565b6000610bc582610b09565b9150610bd083610b09565b9250828202610bde81610b09565b91507f80000000000000000000000000000000000000000000000000000000000000008414600084121615610c1657610c15610985565b5b8282058414831517610c2b57610c2a610985565b5b509291505056fea2646970667358221220ffe1736b124fbb4fb7523ffb94e5c806b4085996cabfd7b13903e6c3febd906f64736f6c63430008180033",
  "devdoc": {
    "kind": "dev",
    "methods": {},
    "version": 1
  },
  "userdoc": {
    "kind": "user",
    "methods": {},
    "version": 1
  },
  "storageLayout": {
    "storage": [
      {
        "astId": 328,
        "contract": "contracts/FundMe.sol:FundMe",
        "label": "funders",
        "offset": 0,
        "slot": "0",
        "type": "t_array(t_address)dyn_storage"
      },
      {
        "astId": 332,
        "contract": "contracts/FundMe.sol:FundMe",
        "label": "addressToAmountFunded",
        "offset": 0,
        "slot": "1",
        "type": "t_mapping(t_address,t_uint256)"
      },
      {
        "astId": 337,
        "contract": "contracts/FundMe.sol:FundMe",
        "label": "priceFeed",
        "offset": 0,
        "slot": "2",
        "type": "t_contract(AggregatorV3Interface)104"
      }
    ],
    "types": {
      "t_address": {
        "encoding": "inplace",
        "label": "address",
        "numberOfBytes": "20"
      },
      "t_array(t_address)dyn_storage": {
        "base": "t_address",
        "encoding": "dynamic_array",
        "label": "address[]",
        "numberOfBytes": "32"
      },
      "t_contract(AggregatorV3Interface)104": {
        "encoding": "inplace",
        "label": "contract AggregatorV3Interface",
        "numberOfBytes": "20"
      },
      "t_mapping(t_address,t_uint256)": {
        "encoding": "mapping",
        "key": "t_address",
        "label": "mapping(address => uint256)",
        "numberOfBytes": "32",
        "value": "t_uint256"
      },
      "t_uint256": {
        "encoding": "inplace",
        "label": "uint256",
        "numberOfBytes": "32"
      }
    }
  }
}